:100000000C945D000C947A000C947A000C947A00A5
:100010000C947A000C947A000C947A000C947A0078
:100020000C947A000C947A000C947A000C947A0068
:100030000C947A000C947A000C947A000C947A0058
:100040000C94C4000C947A000C947A000C947A00FE
:100050000C947A000C947A000C947A000C947A0038
:100060000C947A000C947A00000000002400270011
:100070002A0000000000250028002B0004040404CE
:100080000404040402020202020203030303030342
:10009000010204081020408001020408102001021F
:1000A00004081020000000080002010000030407FB
:1000B0000000000000000000AF0311241FBECFEFBE
:1000C000D8E0DEBFCDBF21E0A0E0B1E001C01D92CD
:1000D000A135B207E1F710E0CDE5D0E004C02197EB
:1000E000FE010E94E505CC35D107C9F70E940E013B
:1000F0000C94EB050C940000E7EAF0E02491E3E9AE
:10010000F0E09491EFE7F0E0E491EE23C9F02223D0
:1001100039F0233001F1A8F4213019F1223029F10E
:10012000F0E0EE0FFF1FEE58FF4FA591B4912FB7EF
:10013000F894EC91811126C090959E239C932FBF3B
:1001400008952730A9F02830C9F0243049F72091CC
:1001500080002F7D03C0209180002F7720938000A6
:10016000DFCF24B52F7724BDDBCF24B52F7DFBCF88
:100170002091B0002F772093B000D2CF2091B00013
:100180002F7DF9CF9E2BDACF1F920F920FB60F92D1
:1001900011242F933F938F939F93AF93BF9380919D
:1001A000090190910A01A0910B01B0910C013091CD
:1001B000040123E0230F2D3758F50196A11DB11D31
:1001C000209304018093090190930A01A0930B01ED
:1001D000B0930C018091000190910101A091020166
:1001E000B09103010196A11DB11D80930001909370
:1001F0000101A0930201B0930301BF91AF919F91C0
:100200008F913F912F910F900FBE0F901F901895D7
:1002100026E8230F0296A11DB11DD2CFCF93DF9305
:10022000CDB7DEB72E970FB6F894DEBF0FBECDBFA9
:10023000789484B5826084BD84B5816084BD85B5C1
:10024000826085BD85B5816085BD80916E008160CD
:1002500080936E0010928100809181008260809373
:100260008100809181008160809381008091800075
:100270008160809380008091B10084608093B100A0
:100280008091B00081608093B00080917A0084609A
:1002900080937A0080917A00826080937A008091C6
:1002A0007A00816080937A0080917A0080688093E0
:1002B0007A001092C10080E090E0A0E0B2E4809368
:1002C000050190930601A0930701B0930801809166
:1002D0004B01811149C0E0912F01F0913001C080A4
:1002E000D180E280F380C0923701D0923801E09251
:1002F0003901F0923A01E0912D01F0912E018081B7
:100300009181A281B38180933B0190933C01A093A2
:100310003D01B0933E018090470190904801A0902C
:100320004901B0904A01A5019401C701B6010E949C
:10033000730518164CF48092370190923801A09200
:100340003901B0923A0110C080904301909044016D
:10035000A0904501B0904601A5019401C701B601E6
:100360000E94860487FDE7CF81E080934B0170E413
:10037000272E20927C0080917A00806480937A00FE
:1003800080917A0086FDFCCF8091780060917900A1
:10039000762F682F072E000C880B990B0E94C30440
:1003A00020E030E040EA5BE30E94780520E030E0A6
:1003B00048EC52E40E94780560934D0170934E0121
:1003C00080934F019093500180914B01882309F451
:1003D0002DC18FB7F8942091090130910A01409105
:1003E0000B0150910C0129873A874B875C878FBF9F
:1003F0008091330190913401A0913501B091360183
:1004000049855A856B857C85481B590B6A0B7B0B8C
:1004100080913F0190914001A0914101B091420132
:10042000481759076A077B0708F400C1E0912D01BE
:10043000F0912E0180819181A281B38189839A8379
:10044000AB83BC83E0913101F09132019C01AD019D
:1004500060817181828193810E9419044B015C014A
:1004600020913B0130913C0140913D0150913E0172
:1004700069817A818B819C810E9419046B017C01C6
:1004800020912101309122014091230150912401BA
:10049000C501B4010E9478052091370130913801DF
:1004A0004091390150913A010E941A042B013C01FC
:1004B00040923701509238016092390170923A01AE
:1004C00030904C0131101AC020911D0130911E0155
:1004D00040911F0150912001C701B6010E9478058B
:1004E0009B01AC01C301B2010E9419046093370162
:1004F000709338018093390190933A01409037010D
:10050000509038016090390170903A010091470194
:1005100010914801909149019E87A0914A01AD87B1
:100520009801492F5A2FC301B2010E947305181672
:100530000CF0B3C0C801AE85BD85809337019093A0
:100540003801A0933901B0933A01332009F4BCC0BB
:1005500020911D0130911E0140911F0150912001F9
:10056000C501B4010E9478054B015C012091250171
:10057000309126014091270150912801C701B60111
:100580000E9478059B01AC016091370170913801A0
:100590008091390190913A010E941904A5019401BA
:1005A0000E941A046B017C019B01AC01B8018E858D
:1005B0009D850E94860487FD16C00091430110911D
:1005C0004401909145019E87A0914601AD87980115
:1005D000492F5A2FB601C7010E94860487FD03C028
:1005E0008601EE86FD86E0912F01F0913001C80171
:1005F000AE85BD8580839183A283B38329813A81AF
:100600004B815C8120933B0130933C0140933D0141
:1006100050933E0189859A85AB85BC8580933301D3
:1006200090933401A0933501B093360160910D0190
:1006300070910E0180910F01909110010E948B0426
:10064000AB019B01E3E9F0E0F491F983EFE7F0E01F
:1006500084918823A1F090E0880F991FFC01E8594C
:10066000FF4FA591B491FC01EE58FF4F85919491F5
:100670008FB7F8949C91F981F92BFC938FBF2115CA
:10068000310531F580E00E947C0020E030E0232B32
:1006900009F46FCE0E9400006CCE2091430130918E
:1006A000440140914501509146012D833E834F8383
:1006B0005887C301B2010E94860487FF46CF8D810F
:1006C0009E81AF81B88539CF812C912C54014ECFBA
:1006D0002F3F310511F481E0D6CFE7EAF0E08491B5
:1006E000833019F140F48130B1F08230C9F0203804
:1006F00031058CF7C7CF873011F1883041F1843054
:10070000B1F78091800080628093800050938B00CD
:1007100040938A00BACF84B5806884BD47BDB5CF09
:1007200084B5806284BD48BDB0CF80918000806870
:10073000809380005093890040938800A6CF8091D9
:10074000B00080688093B0004093B3009ECF80914A
:10075000B00080628093B0004093B40096CFE1E196
:10076000F1E08DE091E0978F868F8DE491E0958F99
:10077000848F85E091E091A380A312AE12AA13AA00
:1007800014AA15AA80E090E0AFE7B3E486AB97AB7C
:10079000A0AFB1AF84E690E0A0E0B0E086A797A755
:1007A000A0ABB1AB118E108E81E090E0938F828F61
:1007B00083AF80E090E0A0E8B0E480839183A283DF
:1007C000B38346E656E666E67FE344835583668355
:1007D00077834DEC5CEC6CEC7EE34087518762875D
:1007E000738784879587A687B7874BEE51E568EBBB
:1007F0007DE3408B518B628B738B848B958BA68BA7
:10080000B78B2FB7F8948091090190910A01A091BC
:100810000B01B0910C012FBF46A557A560A971A986
:10082000841B950BA60BB70B82A393A3A4A3B5A31C
:1008300008955058BB27AA270E9431040C9439050B
:100840000E942B0538F00E94320520F039F49F3FBA
:1008500019F426F40C9428050EF4E095E7FB0C94AB
:100860002205E92F0E944A0558F3BA176207730759
:100870008407950720F079F4A6F50C946C050EF426
:10088000E0950B2EBA2FA02D0B01B90190010C01A0
:10089000CA01A0011124FF27591B99F0593F50F4B8
:1008A000503E68F11A16F040A22F232F342F442710
:1008B000585FF3CF469537952795A795F040539508
:1008C000C9F77EF41F16BA0B620B730B840BBAF0D8
:1008D0009150A1F0FF0FBB1F661F771F881FC2F743
:1008E0000EC0BA0F621F731F841F48F48795779557
:1008F0006795B795F7959E3F08F0B0CF9395880F11
:1009000008F09927EE0F9795879508950E94FE04A9
:1009100008F481E008950E9492046894B1110C9447
:100920006D0508950E94520588F09F5798F0B92FE1
:100930009927B751B0F0E1F0660F771F881F991F14
:100940001AF0BA95C9F714C0B13091F00E946C0545
:10095000B1E008950C946C05672F782F8827B85F55
:1009600039F0B93FCCF3869577956795B395D9F76C
:100970003EF490958095709561957F4F8F4F9F4F76
:100980000895E89409C097FB3EF490958095709582
:1009900061957F4F8F4F9F4F9923A9F0F92F96E9CB
:1009A000BB279395F695879577956795B795F11140
:1009B000F8CFFAF4BB0F11F460FF1BC06F5F7F4FDD
:1009C0008F4F9F4F16C0882311F096E911C07723EF
:1009D00021F09EE8872F762F05C0662371F096E8F8
:1009E000862F70E060E02AF09A95660F771F881FC7
:1009F000DAF7880F9695879597F90895990F00086B
:100A0000550FAA0BE0E8FEEF16161706E807F907E0
:100A1000C0F012161306E407F50798F0621B730B7B
:100A2000840B950B39F40A2661F0232B242B252BFC
:100A300021F408950A2609F4A140A6958FEF811D9F
:100A4000811D089597F99F6780E870E060E0089540
:100A50009FEF80EC089500240A94161617061806D6
:100A60000906089500240A941216130614060506B2
:100A70000895092E0394000C11F4882352F0BB0F43
:100A800040F4BF2B11F460FF04C06F5F7F4F8F4FA6
:100A90009F4F089557FD9058440F551F59F05F3FE1
:100AA00071F04795880F97FB991F61F09F3F79F090
:100AB00087950895121613061406551FF2CF469512
:100AC000F1DF08C0161617061806991FF1CF869594
:100AD0007105610508940895E894BB276627772778
:100AE000CB0197F908950E94FE0408F48FEF089552
:100AF0000E948B050C9439050E942B0538F00E944A
:100B0000320520F0952311F00C9422050C94280551
:100B100011240C946D050E944A0570F3959FC1F352
:100B2000950F50E0551F629FF001729FBB27F00D9B
:100B3000B11D639FAA27F00DB11DAA1F649F6627F0
:100B4000B00DA11D661F829F2227B00DA11D621F3F
:100B5000739FB00DA11D621F839FA00D611D221FF9
:100B6000749F3327A00D611D231F849F600D211DDD
:100B7000822F762F6A2F11249F5750409AF0F1F060
:100B800088234AF0EE0FFF1FBB1F661F771F881FC9
:100B900091505040A9F79E3F510580F00C942205DA
:100BA0000C946D055F3FE4F3983ED4F386957795FA
:100BB0006795B795F795E7959F5FC1F7FE2B880F6F
:100BC000911D9695879597F90895EE0FFF1F059053
:0A0BD000F491E02D0994F894FFCF92
:00000001FF
